:020000040000FA
:100000000007002075010000830100008501000049
:1000100000000000000000000000000000000000E0
:100020000000000000000000000000008701000048
:10003000000000000000000089010000671D0000B2
:10004000A31D0000A51D00005B1700009F17000006
:1000500045170000B51C000013120000CF1300006C
:10006000F71E0000630F00005D0400001112000085
:10007000F91E0000B71C0000000000000000000096
:100080000000000000000000000000000000000070
:100090000000000000000000000000000000000060
:1000A0000000000000000000000000000000000050
:1000B0000000000000000000000000000000000040
:1000C0000000000000000000000000000000000030
:1000D00000F002F800F03EF80CA030C808382418F0
:1000E0002D18A246671EAB4654465D46AC4201D170
:1000F00000F030F87E460F3E0FCCB6460126334264
:1001000000D0FB1AA246AB4633431847B41E00008A
:10011000D41E0000103A02D378C878C1FAD852072A
:1001200001D330C830C101D504680C6070470000AD
:100130000023002400250026103A01D378C1FBD803
:10014000520700D330C100D50B6070471FB51FBDEB
:1001500010B510BD00F047F91146FFF7F7FF01F0A9
:10016000FDFE00F05FF903B4FFF7F2FF03BC00F0FF
:1001700065F90000094880F3088809488047094864
:100180000047FEE7FEE7FEE7FEE7FEE7FEE70000CA
:1001900005480649064A074B704700000007002043
:1001A000691D0000D10000000001002000070020B0
:1001B000000300200003002001E004C0091F0429FF
:1001C000FBD28B0701D50280801CC90700D00270CA
:1001D000704700290BD0C30702D00270401C491E93
:1001E000022904D3830702D50280801C891EE3E71D
:1001F0000022EEE70022DFE7002203098B4273D3DF
:10020000030A8B4258D3030B8B423CD3030C8B4223
:1002100021D312E003460B437FD4002243088B42D4
:1002200074D303098B425FD3030A8B4244D3030B7D
:100230008B4228D3030C8B420DD3FF22090212BA42
:10024000030C8B4202D31212090265D0030B8B42BE
:1002500019D300E0090AC30B8B4201D3CB03C01AA8
:100260005241830B8B4201D38B03C01A5241430B83
:100270008B4201D34B03C01A5241030B8B4201D373
:100280000B03C01A5241C30A8B4201D3CB02C01ADE
:100290005241830A8B4201D38B02C01A5241430A56
:1002A0008B4201D34B02C01A5241030A8B4201D345
:1002B0000B02C01A5241CDD2C3098B4201D3CB01EC
:1002C000C01A524183098B4201D38B01C01A52419B
:1002D00043098B4201D34B01C01A524103098B429F
:1002E00001D30B01C01A5241C3088B4201D3CB008A
:1002F000C01A524183088B4201D38B00C01A52416D
:1003000043088B4201D34B00C01A5241411A00D21C
:1003100001465241104670475DE0CA0F00D0494285
:10032000031000D34042534000229C4603098B42F5
:100330002DD3030A8B4212D3FC22890112BA030A7D
:100340008B420CD3890192118B4208D389019211FF
:100350008B4204D389013AD0921100E08909C30984
:100360008B4201D3CB01C01A524183098B4201D386
:100370008B01C01A524143098B4201D34B01C01A71
:10038000524103098B4201D30B01C01A5241C308E9
:100390008B4201D3CB00C01A524183088B4201D358
:1003A0008B00C01A5241D9D243088B4201D34B0073
:1003B000C01A5241411A00D20146634652415B10B5
:1003C000104601D34042002B00D549427047634696
:1003D0005B1000D3404201B50020C046C04602BDBC
:1003E000704770477047754600F024F8AE46050028
:1003F00069465346C008C000854618B020B5FFF7CF
:10040000C7FE60BC00274908B6460026C0C5C0C567
:10041000C0C5C0C5C0C5C0C5C0C5C0C5403D4900F8
:100420008D46704710B50446C046C0462046FFF7CB
:100430009AFE10BD00487047A00000200149182016
:10044000ABBEFEE7260002007047C1667047024659
:10045000D26E00200A4200D00120704710B540241F
:100460002402013424020434240201212046FFF72F
:10047000EEFF002805D001212046FFF7E6FF00F03F
:10048000A9F910BDF8B50C4605460121080201F096
:1004900013FC6088A866217AE089890208432179E3
:1004A000A2790903D20211430843A1890901084333
:1004B000A17A0902084380B26865618A208A09012D
:1004C0000843A18AE28A09021203114308432865FE
:1004D00040200002013000020430A18B00020163C1
:1004E000618B4163218B81637A2109024020833132
:1004F0000006803081622088042802D9001F87B25C
:1005000000E0002740263602208C01363602C10763
:100510000436402036024036050600290DD02969F0
:1005200001432961FF20AD3001F094FB7062FF2090
:10053000A93001F08FFB30620CE029698143296109
:10054000FF20A53001F086FB7062FF20A13001F092
:1005500081FB30623802A8616869E18B8901084338
:10056000686140200021000680308162F8BD0021D2
:10057000018041808180C180018141818181C1816F
:10058000018241828182C182018341838183C1834F
:1005900001847047F8B520252D0200352D02003565
:1005A0002D027435687E01287ED1687800287BD1C1
:1005B0002A7E0026002A15D020242402003424029A
:1005C00000342402943440273F020137A07A3F02CE
:1005D000033781003F02012A1AD0022A6AD0032A77
:1005E0007ED0FEE720200002003000020030000232
:1005F0005C300168FC2000027C308847A868411C00
:10060000A960FF21F531884253D90120AE6096E000
:100610002020000200300002003000025C3041580F
:10062000FC2000027C308847A9684A1CAA602D6A19
:10063000A9423ED920200002003000020030000212
:1006400074308660A07A0621401CFFF7D5FDA172A8
:10065000681E2021090200310902003109027431AB
:100660000862142D25D24020000201300002023021
:1006700000028168C908C9008160202000020030A2
:1006800000020030000274300E210902A531090277
:100690000673FF31F9603E6179680122520411430B
:1006A00079603968120300E003E0114339600221E8
:1006B0000176F8BD20200002003000020030000268
:1006C0005C304158FC2000027C308847A868411CFF
:1006D000A960296A884208D9AE60A07A062100E0A4
:1006E0002FE0401CFFF788FDA1724020000201307E
:1006F0000002023000024069617AC005C00F8142E9
:10070000D7D06072287B401CC0B228730428D0D197
:100710003E612E73AE60A07A0621401CFFF76CFD8F
:10072000A172890020200002003000020030000287
:100730005C304158FC2000027C308847032028763A
:10074000F8BD40210902013109020231090249695B
:10075000627AC905C90F8A4216D061723E61297B4F
:10076000401C491C29730621FFF746FDA172890030
:100770002020000200300002003000025C304158AE
:10078000FC2000027C308847287BFF28D8D14020FD
:1007900000020130000202302E7300028268012143
:1007A0000A43826002226A76402212020132120259
:1007B00007321202803213684414A34313600322E9
:1007C00042603E619C2212023F32FA6002680A4394
:1007D0000260F8BDF8B520200002003000020030B1
:1007E00000027430052605783602DC36202000022F
:1007F00000300002003000027430468240200002C7
:10080000013000020430000241682022120200324E
:100810001202003212027432D181006820210902D2
:1008200000310902003109027431898A401A00B28C
:1008300020210902003109020031090274310882C5
:1008400000902020000200300002003000027430CE
:1008500042681346202109020031090200310902D1
:1008600014314888521C0446401C80B286460878E1
:1008700084460020052D76D200273F0200373F0234
:100880001F373F02E0377F5D7F00BF4400BF40223B
:10089000120201321202073212028032136854141B
:1008A000234313604022120201321202023212026A
:1008B00013685B085B00136040231B0201331B02BB
:1008C00003331B025C6801256D042C435C601C68CB
:1008D0001505AC431C604860202109020031090263
:1008E0000031090274314870486088600873202321
:1008F0001B0200331B0200331B02943398720876EC
:10090000487664240C62FF242402FF342402FC3461
:1009100024027C348C84CC8401241C725C72C861F7
:100920004882C881088288822020000200300002AC
:10093000003000021C3020231B0200331B02003356
:100940001B025C3305681D6045685D6085689D60BD
:10095000C568DD6005691D6140695861D068A043C4
:10096000D0600C70F8BD50E1202424020034240231
:10097000003424027434032109020325E9312D02D5
:10098000711AE735A94247D2FF21F53162608B42E7
:10099000E8D940252D020135DE212D020902073557
:1009A000AD312D02803529634021FB22090212025C
:1009B000013150320902073109024A600A60CA60F7
:1009C0008A604A610A61FF2636024023FF361B0215
:1009D000360201333F361B0236020733FF361B0255
:1009E00040331E60AE6A40273E43AE620026F643A7
:1009F0002E630A618A600A604B2212014A61CA6052
:100A00004A60FF210902FF3109023F310902FF312B
:100A100019606060022034E06060F8BD2024240288
:100A200000342402003424027434009D4E68AD1951
:100A30004D6062607F2BF0D9E917490E4919C91141
:100A4000A18260604020FB21000209020130503188
:100A50000002073000020161816001604161C160F4
:100A60004160FF2000024021FF30090200020131F5
:100A70003F30090200020731FF30090240310860AF
:100A800003202070F8BD25E0FFE74022120201326A
:100A900012020832120240329268520601D5488092
:100AA00009E072464A80FF22F532944203D9488019
:100AB0000120087002E060460028E3D001212020D8
:100AC0000002003000020030000274304176042140
:100AD0000170F8BD20273F0200373F0200373F0278
:100AE00074377D25ED00761B6D1CAE4238D37A60DD
:100AF000642B36D9402212020132DE2312021B027D
:100B00000732AD33120280321363936A4026B34337
:100B100093624023FB251B022D02013350351B023B
:100B200007331B025D601D60DD609D605D611D61BE
:100B3000FF231B024025FF332D021B0201353F33EB
:100B40002D021B020735FF332D0240352B60936ABF
:100B5000B34393620023DB4313637860387000E093
:100B60007860402212020132120208321202403230
:100B70009268520601D5488009E072464A80FF22F9
:100B8000F532944203D9488001220A7037E0614669
:100B9000002934D1402109020131DE22090212026A
:100BA0000731AD32090280310A638A6A4024A243C8
:100BB0008A624022FB2312021B02013250331202CE
:100BC0000732120253601360D36093605361136164
:100BD000FF2212024023FF321B02120201333F3276
:100BE0001B0212020733FF321B0240331A608A6A6B
:100BF000A2438A620022D2430A63786038707A780E
:100C0000002A00D165E73870F8BDFEE77A210902B5
:100C1000402210B48331120680329162D1054B69B3
:100C20000724240223434B614B694C15A3434B61BA
:100C300000219162402109020131090207310902B4
:100C400008604B200001C860FB2000025030486162
:100C5000086188604860FF2000024021FF300902DF
:100C6000000201313F30090200020731FF30090262
:100C70004031086010BC70477A210902402210B44C
:100C80008331120680329162D1054B690724240218
:100C900023434B614B690C15A3434B6100219162C7
:100CA00040210902013109020731090208604B2085
:100CB00000014861FB20000250300861C860886074
:100CC0004860FF2000024021FF300902000201318C
:100CD0003F30090200020731FF300902403108604D
:100CE00010BC70477A210902402210B483311206E9
:100CF00080329162D1054B690724240223434B6162
:100D00004B694C15A3434B610021916240210902BC
:100D1000013109020731090288604B200001486057
:100D2000FB2000025030486108610860C860FF2065
:100D300000024021FF300902000201313F30090268
:100D400000020731FF3009024031086010BC7047D3
:100D50007A210902402210B4833112068032916256
:100D6000D1054B690724240223434B614B690324BB
:100D70002402A3434B610021916240210902013109
:100D800009020731090288604B2000014861FB20FD
:100D900000025030086148600860C860FF2000020F
:100DA0004021FF300902000201313F3009020002F8
:100DB0000731FF3009024031086010BC70477A21CA
:100DC0000902402210B48331120680329162D105AB
:100DD0004B690724240223434B614B690C15A34341
:100DE0004B61002191624021090201310902073162
:100DF000090208614B2000014860FB2000025030CE
:100E00004861C86088600860FF2000024021FF3010
:100E10000902000201313F30090200020731FF30B0
:100E200009024031086010BC70477A210902402253
:100E300010B48331120680329162D1054B690724C8
:100E4000240223434B614B6903242402A3434B61D7
:100E50000021916240210902013109020731090292
:100E600008614B200001C860FB200002503048613F
:100E7000886048600860FF2000024021FF300902BE
:100E8000000201313F30090200020731FF30090240
:100E90004031086010BC7047F8B5202424020034AB
:100EA0002402003424027434607E022858D1607811
:100EB000002855D120252D0200352D0200352D02A8
:100EC0009435A87A0621401CFFF796F9A972A08CE8
:100ED00089002022120200321202003212025C3219
:100EE00051588847402000020130000202300002C1
:100EF000016849084900016003214160402109025D
:100F000001310902033109020A690025E2610D611C
:100F1000C1680127C907C917491C02D0C1683943F4
:100F200002E0C16849084900C16024212626615EAB
:100F3000A65FB14207DA237B5A1C22730A2B02D91F
:100F40002573491C08E0B14207DD227B531C237343
:100F50000A2A02D92573491EA18401683943016018
:100F6000F8BD40200002013000020230000241685A
:100F7000C90705D010B501214160FFF78DFF10BDF5
:100F80007047F8B504467A200002402183300906F4
:100F900080318862CA05506980231B0243331840A0
:100FA000A36B1B031843237BDB021843A3691B02BB
:100FB00018432369DB011843E36B1B011843E36902
:100FC0009B001843506100278F6225462035297DFC
:100FD000101400F071FE0120217D400300F06CFE32
:100FE00026464036707A002802D1687A002804D05C
:100FF0000121082000F082FE03E00021082000F01B
:101000007DFE3078297840020143687872780002CA
:101010005200104301434020000201300002023020
:10102000000201602179002937D022681201C9002D
:101030000A43A1680A438260616C327AC901920155
:101040001143727A52011143E26C12011143626A38
:10105000D20011432A7A920011436A7A5200114356
:10106000E26A1143C160317C727CC9019201114373
:10107000B27C52011143F27C120111432A7CD2004E
:1010800011436A7C92001143AA7C52001143EA7C0E
:101090001143016103214160F8BD717A002902D139
:1010A000697A002902D008218160C5E78760C3E71B
:1010B0000021012201600271816002730246203228
:1010C0000161134611752032517011704164117223
:1010D0005172C1648163C163117451749174D1748C
:1010E000017519705970416219725972C16281613A
:1010F000C161197459749974D9747047F8B505466B
:101100000121C80200F0D8FD0126B607706802214F
:10111000C3B26B7020242402003424020034240261
:101120000834FF20C130071D012B0AD00322022BF7
:101130000FD0AB78022B1CD0002B02D0012B0DD08E
:10114000F8BD217000F086FD6080384600F082FD19
:101150000DE0AB78002BF4D0012BF1D1227000F020
:1011600079FD00146080384600F074FD0014A08002
:10117000F8BD0120FF2520708D35284600F06AFD5E
:1011800000146080284600F065FDA0807A210902E5
:1011900040208331000680308162B169C21311435F
:1011A000B161FF210902FF318162F8BD00212023D6
:1011B0001B0200331B0200331B0208331A78012A7A
:1011C00004D0022A04D0032A04D004E0D52102E08E
:1011D000552100E035214843000BFF2811DC022196
:1011E000595E414348129988401800B2002801DA3C
:1011F000002002E0FF2800DDFF2001218907C862EE
:101200007047FF20EBE7002101704170817070474B
:101210007047704770B4002401252A460B68A2402D
:101220001340934237D10B79002B06D0012B0BD002
:10123000022B16D0032B1AD00DE006681346334359
:1012400003604368934305E0036893430360466883
:101250001346334343604B79012B0FD0002B11D041
:1012600013E003689343036043689343F2E7036822
:1012700013430360466813463343EBE7066913469E
:10128000334301E003699343036183698E68012E50
:1012900006D093438361641C102CBED370BC70478E
:1012A0001343F7E7102919D200231B0200331B0256
:1012B0001F331B02E5335B5C5B009F4400BF016A88
:1012C000FF231B02F0331940891816E0016AFF233F
:1012D0001B020F3319401201511801627047016A55
:1012E000F0231B02FF3319401202511801627047AC
:1012F000016A12030905090D511801627047416A1C
:10130000FF231B02F0331940891816E0416AFF23BE
:101310001B020F3319401201511841627047416A94
:10132000F0231B02FF33194012025118416270472B
:10133000416A12030905090D511841627047816A1B
:10134000FF231B02F0331940891816E0816AFF233E
:101350001B020F3319401201511881627047816AD4
:10136000F0231B02FF3319401202511881627047AB
:10137000816A12030905090D511881627047C16A1B
:10138000FF231B02F0331940891816E0C16AFF23BE
:101390001B020F33194012015118C1627047C16A14
:1013A000F0231B02FF33194012025118C16270472B
:1013B000C16A12030905090D5118C1627047016322
:1013C00070470021016001714171816070474020C8
:1013D00000020130000203300002416889032ED56B
:1013E0000121490441604020FB2100020902013033
:1013F00050310002073000020161816001604161EB
:10140000C1604160FF2000024021FF30090200025C
:1014100001313F30090200020731FF30090240313B
:10142000086020200002003000020030000274300A
:10143000417E012904D0022901D103214170704766
:101440000221FBE710B504460121022000F056FC02
:10145000A178208809040843E17822790905120659
:1014600011430843617949060843A1798906084375
:10147000E17909070843217A49070843217C890754
:1014800008434021090201310902033109020860C1
:10149000E068C8600020486010BD03210902FF31E8
:1014A0000180002181700122C2700271C2714171FC
:1014B00081717D220172D200C26001747047F0B563
:1014C00097B072B67A20000240218330090680313D
:1014D0008862C805406902263043C905486100F0AA
:1014E00032F9F0030068B1040843C91008603020E5
:1014F00000F003FD6846FFF764FF012568460571AB
:10150000202000904020000201300002083000023C
:1015100069464030FFF77EFE002468460471402093
:1015200000904020000201300002083000026946AD
:101530004030FFF76FFE402768463F0205710137D4
:101540003F203F02800208373F020090694638463C
:10155000FFF760FE03220A213846FFF7A3FE0322AD
:101560000B213846FFF79EFE03220C213846FFF779
:1015700099FE03220D213846FFF794FE03220E2127
:101580003846FFF78FFE03220F213846FFF78AFE09
:101590006846057140200002013000020830000258
:1015A000694640300096FFF735FE6846FFF72BFE90
:1015B00068460570FFF7A2FD2C200002CC30FFF733
:1015C000F5FD6846FFF774FD68460571052000903B
:1015D00002946846057308A8049405750E9610A831
:1015E0000F96139444700470047244721494684605
:1015F0001194057508A845720320069007900B9476
:1016000008A8047044700994057268460C94FFF7AA
:10161000B8FC684600F036FCBB2000027F30069024
:101620005D200002C0301290402000020130000214
:10163000049405300F940E946946000200F0BFFB3D
:101640006846FFF72AFF6846057184707F20000214
:10165000FF3003906846FFF7F5FE00F02DFC68466A
:1016600000F0DCFA0195694600200295009400F034
:10167000A0FA0021084600F0B9FA6846FEF777FFA5
:101680006846048144810321018284810484858029
:10169000C5814580042404804020000201300002FE
:1016A000043069460002FEF7EDFE402000020130E2
:1016B0000002DB2104300901000240300160FF21FB
:1016C000C1624169C2141143416100F003FA642010
:1016D00000F02AFCE02000048021E13000020160DB
:1016E000E0210904E431090204310968E02212040E
:1016F0000902E432090A1202043211602102016077
:10170000111D0A68FF231B049A4363051A430A60EC
:101710009A1302600A68FF231B029A4323031A43A9
:101720000A600460E0200004E43000020068FF2149
:1017300009048843E0210904E4310902086062B623
:1017400017B0F0BD70474021090201310F20090296
:1017500080020C3109024860704710B54024240211
:1017600001342402073424028034606980060DD5D8
:10177000F0206061012020210902003109020031BE
:101780000902743148700003FFF710FD606880049F
:1017900004D5012040036060FEF7FCFE10BD7047D9
:1017A000F8B50C4605460121102000F0A7FADE200E
:1017B0000002AD302A4680321063617920798900B9
:1017C0000843A17AE37A09015B0119430843217BAD
:1017D00009020843617B49020843E86720882863BF
:1017E00060886863E08B2862208C6862608CA862E5
:1017F000A08CE8622089286721462031C87A8B7A3C
:1018000040000343204640308678E78AB601FF0156
:101810003E4333430E7B360233434E7B76023343E3
:10182000C678B6033343268BF60333438E7C7601AA
:101830003343CE7C360133430E7D760333434E7DF6
:10184000360333438E7EF6003343CE7EB6003343F9
:101850000E7FF60233434E7FB60233431362CE7BD4
:101860008B7B760033430679678BB601FF013E43DD
:1018700033430E7C360233434E7C76023343467943
:10188000B6033343A68BF60333438E7D7601334391
:10189000CE7D360133438E7FC97FF6003343890006
:1018A0000B430178C9020B43417889020B43536211
:1018B000817C037C89000B43817BC67B0901760117
:1018C00031430B43417C49000B43C17CC9000B43AE
:1018D000017DC9010B43017F09020B43C17E49020F
:1018E0000B43817F89020B43417FC9020B43214691
:1018F00060310E7836033343C67F760333439362F9
:10190000467EC37DB6003343467D877D36017F0129
:101910003E433343067E76003343867EF6003343F0
:10192000067DF60133438E78360233434E787602D5
:101930003343D362067A837936013343467A077B91
:101940007601BF013E433343C67936023343867A7C
:1019500036033343C67A407B760333438003034325
:101960006B67E08C2865208D686523468033D888B6
:10197000A867E089A864208AE8641220205EA86332
:101980001420205EE8630E79C878760030434E79E3
:101990008F79B600FF003E433043CE7936013043A5
:1019A0000E7A760130434E7AB60130438E7AF601D4
:1019B0003043CE7A360230430E7B760230434E7B84
:1019C000B60230438E7BF6023043CE7B3603304383
:1019D0000E7C760330434E7CB60330431060CE7CE1
:1019E000887C760030430E7D4F7D36027F023E4379
:1019F00030438E7D36033043CE7D760330430E7EFA
:101A0000B6033043906058789E78000176013043E9
:101A1000DE78B60130431E79F601304310618E7EC8
:101A2000487E76003043CE7E0F7FB600FF003E43F7
:101A300030434E7F360130438E7FC97F760130437D
:101A4000890108431978C90108439061187AD06167
:101A5000FF200002FF3028645060D0605061A07900
:101A6000E1798001C9010843E96F0843E867CA20AA
:101A70000002FE301063F8BD10B58A21FEF7B8FBF6
:101A800010BD402000020130DE21000209020730B3
:101A9000AD3100028030016367214163CA21090230
:101AA000FE3101637047402109020131090207310B
:101AB000028809020A8042888A8082880A81C28854
:101AC0008A8102890A8242898A8282890A83C0893C
:101AD0008883704700B5A3B06846FFF7CDFF0020AC
:101AE0006A461071012151719171D171D1821183B6
:101AF0005183918318AA1290D07090744B231B01CC
:101B00006A4613805380FB231B02B433938418AAC4
:101B100011746A46D084108508AA9076D0760F900A
:101B20009174D074117550759175D07510AA90701C
:101B3000D0701071D07618AA1790107008AAD072C1
:101B4000907220AA0B90107210AA117504236A4695
:101B50001372537220AA507010AA9073117490746B
:101B600020AA917010AAD1735174D07420AAD07099
:101B700010AA5075D175507620AA107110AA9075D0
:101B8000117690764020000201300002073069464D
:101B90000002FFF705FEFFF774FF4020000201304E
:101BA00000020830000202214030FFF708FC23B099
:101BB00000BD30B47A2212024024833224068034DD
:101BC000A262E5052A6900280BD102200002233019
:101BD0008243086810438A685301034348684202FD
:101BE0001A432A610020A06230BC70477A22120298
:101BF000402310B483321B0680339A62DA05042432
:101C0000002908D0002802D110692043106100206B
:101C1000986210BC70471069A043F7E70321016088
:101C20000021816041607047DE221202AD328030B7
:101C3000026301290AD0816AFF221202BF321140D9
:101C40008162CA210902FE3101637047816A402224
:101C50001143F5E7014689088900FF209130814250
:101C600002D31348814207D99320800081421CD3BC
:101C70004B20C000814218D80120000400680123D5
:101C8000DB0218435B0118605920000658601846B3
:101C90004160C268952000065860184600685B11D4
:101CA00098435B011860104670470020FCE7000075
:101CB000FF0100007047704710B47A2212024024DE
:101CC000833224068034A26223151A0501290CD020
:101CD000410503D511691943116118431169814305
:101CE00011610020A06210BC7047410503D5116945
:101CF00099431161984311690143F1E77A231B026B
:101D000040228333120680329362002902D0D169C7
:101D1000014301E0D1698143D161002090627047A5
:101D200070B50646FF20D530FFF794FF000C03285E
:101D30000FD3FF2099300124A407051D002E09D0E0
:101D4000FFF788FF80B260622846FFF783FF80B20A
:101D5000A06270BDFFF77EFF000C60622846FFF7AF
:101D600079FF000CF4E7704738B57A200002402470
:101D7000833024068034A0620120FFF7D1FFE00504
:101D80000169C2131143016164200021009100BF69
:101D9000491C00918142FAD301200002FF302060EB
:101DA00038BD70477047002904D001680122D2076E
:101DB000114302E00168490049080160704770B5AD
:101DC0000C46054640214020090200020131013045
:101DD0000902000205310630090200028D4202D1DB
:101DE0000121202003E0854203D101214020FFF79B
:101DF00085FF2079217AC00689060843217B0906E0
:101E00000843218A09050843A18A09040843E169B6
:101E100009030843216AC9020843616A8902084329
:101E2000A16A49020843E16A09020843616B09019A
:101E30000843A16BC9000843E16B89000843216C8A
:101E400049000843616C08432860A0696860E06C41
:101E5000A860A06CE860206B2861206D6861606DEF
:101E6000A861A06DE861072028622078002804D0CE
:101E700028680121C907084302E02868400040089B
:101E8000286070BD002141608160C16001614161D5
:101E90000122C261816141628162C16201630262A9
:101EA0004163C163016441648164C164016541654A
:101EB00082638165017070477A200002402110B56D
:101EC0008330090680318862C80501698214114394
:101ED0000161FF20C930FFF7BDFE20242402003439
:101EE0002402003424020E342080FF20CD30FFF77E
:101EF000B1FE608010BD7047FEE7E0210904E031CB
:101F000009020A6904239A430A61C00820210902D0
:101F10000031090200310902003108607D2280B2DF
:101F2000D200504348607047202109020031090265
:101F300000310902003109684843E0210904E03119
:101F40000902486100228A61012008610869C3070B
:101F500001D0C003FAD50A618A617047FFF7AFFA72
:101F6000FF210902FF310902FB3109025031202013
:101F7000000200300002003000024C30018041803D
:101F80008180C18001814181202000020030000257
:101F9000003000024C30FFF786FD40200002013087
:101FA0000002053001210002FFF7FDFE4020000283
:101FB00001300002073001210002FFF735FEFEE785
:101FC000F81F0000000000204C0000001401000079
:101FD000442000004C000020B40600003001000046
:101FE000006DC7FDFC00071019202730394047500D
:101FF00059606770790000000000000000000000D8
:1020000000000000000000000000000000000000D0
:10201000000000000D0C0000790C0000510D0000C4
:10202000E50C0000BF0D00002B0E00000D0C0000A1
:102030002B0E0000BF0D0000E50C0000510D00004C
:04204000790C000017
:04000005000000D126
:00000001FF
