:020000040000FA
:100000005007002065010000730100007501000029
:1000100000000000000000000000000000000000E0
:100020000000000000000000000000007701000058
:100030000000000000000000790100000F1B00001C
:100040004D1B0000511B0000291500005915000030
:10005000151500005D1A00007F100000D11200008D
:10006000E11C0000E10C00004D040000850F0000C1
:10007000A51D00005F1A0000000000000000000045
:100080000000000000000000000000000000000070
:100090000000000000000000000000000000000060
:1000A0000000000000000000000000000000000050
:1000B0000000000000000000000000000000000040
:1000C00000F002F800F03EF80CA030C80838241800
:1000D0002D18A246671EAB4654465D46AC4201D180
:1000E00000F030F87E460F3E0FCCB6460126334274
:1000F00000D0FB1AA246AB46334318475C1E0000F3
:100100007C1E0000103A02D378C878C1FAD8520792
:1001100001D330C830C101D504680C6070470000BD
:100120000023002400250026103A01D378C1FBD813
:10013000520700D330C100D50B6070471FB51FBDFB
:1001400010B510BD00F047F91146FFF7F7FF01F0B9
:10015000A7FE00F05FF903B4FFF7F2FF03BC00F065
:1001600065F90000094880F3088809488047094874
:100170000047FEE7FEE7FEE7FEE7FEE7FEE70000DA
:1001800005480649064A074B704700005007002003
:10019000111B0000C100000050010020500700208A
:1001A000500300205003002001E004C0091F04296F
:1001B000FBD28B0701D50280801CC90700D00270DA
:1001C000704700290BD0C30702D00270401C491EA3
:1001D000022904D3830702D50280801C891EE3E72D
:1001E0000022EEE70022DFE7002203098B4273D3EF
:1001F000030A8B4258D3030B8B423CD3030C8B4234
:1002000021D312E003460B437FD4002243088B42E4
:1002100074D303098B425FD3030A8B4244D3030B8D
:100220008B4228D3030C8B420DD3FF22090212BA52
:10023000030C8B4202D31212090265D0030B8B42CE
:1002400019D300E0090AC30B8B4201D3CB03C01AB8
:100250005241830B8B4201D38B03C01A5241430B93
:100260008B4201D34B03C01A5241030B8B4201D383
:100270000B03C01A5241C30A8B4201D3CB02C01AEE
:100280005241830A8B4201D38B02C01A5241430A66
:100290008B4201D34B02C01A5241030A8B4201D355
:1002A0000B02C01A5241CDD2C3098B4201D3CB01FC
:1002B000C01A524183098B4201D38B01C01A5241AB
:1002C00043098B4201D34B01C01A524103098B42AF
:1002D00001D30B01C01A5241C3088B4201D3CB009A
:1002E000C01A524183088B4201D38B00C01A52417D
:1002F00043088B4201D34B00C01A5241411A00D22D
:1003000001465241104670475DE0CA0F00D0494295
:10031000031000D34042534000229C4603098B4205
:100320002DD3030A8B4212D3FC22890112BA030A8D
:100330008B420CD3890192118B4208D3890192110F
:100340008B4204D389013AD0921100E08909C30994
:100350008B4201D3CB01C01A524183098B4201D396
:100360008B01C01A524143098B4201D34B01C01A81
:10037000524103098B4201D30B01C01A5241C308F9
:100380008B4201D3CB00C01A524183088B4201D368
:100390008B00C01A5241D9D243088B4201D34B0083
:1003A000C01A5241411A00D20146634652415B10C5
:1003B000104601D34042002B00D5494270476346A6
:1003C0005B1000D3404201B50020C046C04602BDCC
:1003D000704770477047754600F024F8AE46050038
:1003E00069465346C008C000854618B020B5FFF7DF
:1003F000C7FE60BC00274908B6460026C0C5C0C578
:10040000C0C5C0C5C0C5C0C5C0C5C0C5403D490008
:100410008D46704710B50446C046C0462046FFF7DB
:100420009AFE10BD00487047EC00002001491820DA
:10043000ABBEFEE7260002007047C1667047024669
:10044000D26E00200A4200D00120704710B5074C40
:1004500001212046FFF7F3FF002805D001212046A7
:10046000FFF7EBFF00F054F910BD0000000401405D
:10047000F8B50C4605460121080201F0F1FA608842
:10048000A866217AE089890208432179A2790903C3
:10049000D20211430843A18909010843A17A090244
:1004A000084380B26865618A208A09010843A18AED
:1004B000E28A090212031143084328651E48A18BF2
:1004C0000163618B4163218B81631D481B498162FC
:1004D0002088042802D9001F87B200E00027208C62
:1004E000184EC10740200506002929690CD0014398
:1004F0002961FF20AD3001F081FA7062FF20A93040
:1005000001F07CFA30620BE081432961FF20A530C5
:1005100001F074FA7062FF20A13001F06FFA3062CE
:100520003802A8616869E18B890108436861044861
:1005300000218162F8BD000000040140837A0000C0
:100540008000004040040140002101804180818002
:10055000C180018141818181C18101824182818289
:10056000C182018341838183C1830184704700007C
:10057000F8B55E4D687E01284CD16878002849D1D5
:100580002A7E0027002A0AD0594C5A4EA07A8100B0
:10059000012A12D0022A3ED0032A6CD0FEE7564828
:1005A000016856488847A868411CA960FF21F531B9
:1005B00088422FD90120AF605BE04F4841584F4837
:1005C0008847A96828464A1CAA602D6AA94221D9F1
:1005D000002107468160A07A0621401CFFF704FE37
:1005E000681EA1723862142D14D245488168C9086A
:1005F000C9008160002038734249F1603061706841
:1006000001214904084370603068090308433060E1
:1006100002203876F8BD3848415838488847A868DD
:10062000411CA960296A884206D9AF60A07A0621D8
:10063000401CFFF7D9FDA17231484069617AC005BD
:10064000C00F8142E6D06072287B401CC0B2287384
:100650000428DFD137612F73AF60A07A0621401CD8
:10066000FFF7C2FDA17224488900415823488847FA
:1006700003202876F8BD22494969627AC905C90F65
:100680008A4210D061723169E9613761297B401C6F
:10069000491C29730621FFF7A7FDA172164889009E
:1006A000415816488847287BFF28E3D114482F7308
:1006B000826801210A438260627A002AC26801D0FE
:1006C0000A4301E052085200C26002226A760E4AD2
:1006D00013685414A34313600322426037610B4A2A
:1006E000F26002680A430260F8BD00007400002056
:1006F00094000020000301405C00002018FC000072
:1007000000020140FFA50E00800701403F9C000051
:10071000F0B5B148B0490678B04888B04882844600
:10072000AF48406802B20846C281AD480068898A75
:10073000401AA94900B20882069008464468A949AF
:1007400025464888641C0346401C80B20090087807
:1007500007900020052E78D237007F443F79FF199B
:10076000BF44023E7794AE009F4A1368541423435B
:1007700013609E4A13685B085B0013609C4A5368D1
:1007800024012343536013682403A3431360886048
:100790009149984A4870486088600873907208765A
:1007A000487664230B62944B8B84944BCB84012357
:1007B00013725372C8614882C88108828882904847
:1007C000904A046814604468546084689460C46803
:1007D000D46004691461406950610B7008B0F0BDC9
:1007E000894E63469B19894E7B49B3422ED2731CB6
:1007F0009A422BDB864B9A4228DCFF20F5304C6076
:100800008542EBD9784A834810638448824B436021
:100810000360C360836043610361824D804C2C6040
:10082000966A40273E4396622614166303618360EE
:1008300003604B2212014261C26042602C600020C2
:1008400048600220087008B0F0BDC3E0486008B0FE
:10085000F0BD069B8E68604A9B198B6054607F2DAB
:10086000F5D9D917490EC918C911918250606B4842
:1008700069490161816001604161C160416069490C
:10088000674808600320107008B0F0BD664A92689F
:10089000520601D5488009E0009A4A80FF22F532CD
:1008A000934203D948800120087002E0079800288D
:1008B000EAD04948012141760421017008B0F0BD19
:1008C0007D256446ED00641B6D1CAC4222D38C88F0
:1008D000651C8D80642C1ED9434E4E4C3463B56A22
:1008E0004027BD43B5624D4C4B4D65602560E560CA
:1008F000A560656125614B4D494C2C60B46ABC43D1
:10090000B4620024E4433463334C0125657088806D
:10091000207000E088807D242F4EE400A24220DA7F
:10092000CA88541CCC80642A20D92F4A394C1463BD
:10093000956A4027BD439562384C374D6560256008
:10094000E560A56065612561364D354C2C60956A82
:10095000BD4395622414146302247470C8803070FF
:1009600004E02B4CA24200DDFEE7C8802E4A9268CC
:10097000520601D5488009E0009A4A80FF22F532EC
:10098000934203D9488001220A701CE0079900298C
:1009900019D115491F4A0A638A6A4024A2438A6210
:1009A0001E4A1D4B53601360D36093605361136103
:1009B0001C4B1B4A1A608A6AA2438A620022D243F5
:1009C0000A63706030707278002A00D176E7307068
:1009D00008B0F0BDFEE7000074000020DC05000058
:1009E0000004014014000020800701400002014083
:1009F000000301409400002018FCFFFF4C0400009D
:100A0000200000205C00002017FCFFFFE70300002F
:100A1000983A0000ADDE000050FB000000070140E6
:100A2000FF3FFFFF400701404008014010B4104A5B
:100A30000E499162D1054B690724240223434B617F
:100A40004B694C15A3434B61002191620949086031
:100A50004B200001C8600848486108618860486010
:100A600007490648086010BC70470000837A000000
:100A7000800000400007014050FB0000FF3FFFFFE7
:100A80004007014010B4104A0E499162D1054B69EC
:100A90000724240223434B614B690C15A3434B618C
:100AA00000219162094908604B2000014861084813
:100AB0000861C8608860486007490648086010BC43
:100AC00070470000837A000080000040000701406A
:100AD00050FB0000FF3FFFFF4007014010B4104AE9
:100AE0000E499162D1054B690724240223434B61CF
:100AF0004B694C15A3434B61002191620949886001
:100B00004B20000148600848486108610860C860DF
:100B100007490648086010BC70470000837A00004F
:100B2000800000400007014050FB0000FF3FFFFF36
:100B30004007014010B4104A0E499162D1054B693B
:100B40000724240223434B614B6903242402A3435B
:100B50004B6100219162094988604B200001486186
:100B60000748086148600860C86007490548086090
:100B700010BC7047837A00008000004000070140ED
:100B800050FB0000FF3FFFFF4007014010B4104A38
:100B90000E499162D1054B690724240223434B611E
:100BA0004B690C15A3434B6100219162094908610F
:100BB0004B200001486008484861C86088600860B0
:100BC00007490648086010BC70470000837A00009F
:100BD000800000400007014050FB0000FF3FFFFF86
:100BE0004007014010B4104A0E499162D1054B698B
:100BF0000724240223434B614B6903242402A343AB
:100C00004B6100219162094908614B200001C860D5
:100C100007484861886048600860074905480860DF
:100C200010BC7047837A000080000040000701403C
:100C300050FB0000FF3FFFFF40070140F8B5234C89
:100C4000607E022841D1607800283ED1204D0621E7
:100C5000A87A401CFFF7C8FAA9721E4A89005158A9
:100C6000A08C88471C48016849084900016003219D
:100C700041601A490A690025E2610D61C1680127D6
:100C8000C907C917491CC16801D0394301E04908A7
:100C90004900C16024212626615EA65FB14207DAC1
:100CA000237B5A1C22730A2B02D92573491C08E0A6
:100CB000B14207DD227B531C23730A2A02D9257314
:100CC000491EA184016839430160F8BD7400002009
:100CD000940000205C00002000020140000301405D
:100CE00005484168C90705D010B501214160FFF7EB
:100CF000A5FF10BD7047000000020140F8B5044692
:100D0000454944488862CA055069444B1840A36B62
:100D10001B031843237BDB021843A3691B02184300
:100D20002369DB011843E36B1B011843E3699B0054
:100D30001843506100278F6225462035297D101405
:100D400000F08EFE0120217D400300F089FE264642
:100D50004036707A002802D1687A002804D0012138
:100D6000082000F09FFE03E00021082000F09AFE1A
:100D70003078297840020143687872780002520086
:100D800010430143264801602179002937D02268A9
:100D90001201C9000A43A1680A438260616C327A79
:100DA000C90192011143727A52011143E26C12019E
:100DB0001143626AD20011432A7A920011436A7A7F
:100DC00052001143E26A1143C160317C727CC90157
:100DD00092011143B27C52011143F27C1201114382
:100DE0002A7CD20011436A7C92001143AA7C5200F3
:100DF0001143EA7C1143016103214160F8BD717A1E
:100E0000002902D1697A002902D008218160C5E752
:100E10008760C3E7837A00008000004043800000C1
:100E20000002014000210122016002718160027311
:100E30000246203201611346117520325170117043
:100E4000416411725172C1648163C1631174517440
:100E50009174D17401751970597041621972597287
:100E6000C1628161C161197459749974D9747047F0
:100E7000F8B505460121C80200F0F2FD0126B607CB
:100E800070680221C3B2FF20C1301F4C071D6B7078
:100E9000012B0AD00322022BAB780ED0022B1BD0E1
:100EA000002B02D0012B0CD0F8BD217000F0A6FD64
:100EB0006080384600F0A2FD0CE0002BF5D0012B3D
:100EC000F2D1227000F09AFD00146080384600F0E4
:100ED00095FD0014A080F8BD0120FF2520708D3500
:100EE000284600F08BFD00146080284600F086FD47
:100EF000A080074805498162B169C2131143B161FD
:100F000004498162F8BD000008000020837A0000D7
:100F100080000040FFFF0000134B00211A78012AD7
:100F200004D0022A04D0032A04D004E0D52102E030
:100F3000552100E035214843000BFF2811DC022138
:100F4000595E414348129988401800B2002801DADE
:100F5000002002E0FF2800DDFF2001218907C86290
:100F60007047FF20EBE7000008000020002101701F
:100F7000417081707047000001498860704700002F
:100F8000800A014070B5154D2021284600F03EF939
:100F900013488168C90714D00F2181601149124C90
:100FA0000879022812D08A7A022A03D22069C880DE
:100FB000521C8A722D200001E060E0690121084383
:100FC000E0612021284600F023F970BD0520085675
:100FD0000649800008588047ECE7000040080140BF
:100FE000800A0140E000002000060140500000207F
:100FF00000220260CA68C2600A6902610A8942600E
:101000004A798B7992021B021A43CB789B011A43CF
:101010000B791B011A438B78DB001A434B785B007A
:101020001A4302600B7801220F49002B1AD00F4B94
:10103000C01806D0202807D040280AD0602811D137
:101040000CE0486810430CE04868022318434860ED
:1010500008E0486804231843486003E04868082310
:10106000184348600A607047800A014000F6FEBFDE
:101070000021016041608160C1600161704770477B
:1010800070B4002401252A460B68A2401340934205
:1010900037D10B79002B06D0012B0BD0022B16D0A9
:1010A000032B1AD00DE006681346334303604368F0
:1010B000934305E003689343036046681346334354
:1010C00043604B79012B0FD0002B11D013E0036844
:1010D0009343036043689343F2E703681343036059
:1010E000466813463343EBE706691346334301E092
:1010F00003699343036183698E68012E06D093438D
:101100008361641C102CBED370BC70471343F7E797
:10111000102917D20B007B441B79DB189F44070C66
:10112000131A21262D343B40474E555A6168016AF7
:10113000334B1940891812E0016A324B12011940F1
:10114000511801627047016A2F4B12021940511861
:1011500001627047016A12030905090D5118016205
:101160007047416A264B1940891812E0416A254BA5
:1011700012011940511841627047416A224B120214
:101180001940511841627047416A12030905090D5F
:10119000511841627047816A194B1940891812E051
:1011A000816A184B12011940511881627047816A97
:1011B000154B12021940511881627047816A12035F
:1011C0000905090D511881627047C16A0C4B19401D
:1011D000891812E0C16A0B4B120119405118C16203
:1011E0007047C16A084B120219405118C16270471A
:1011F000C16A12030905090D5118C1627047000048
:10120000F0FF00000FFF0000FFF000004163704797
:101210000163704700210160017141718160704775
:1012200070B584B06846FFF7F5FF012469460C717C
:101230002020254E00903046FFF722FF002569460A
:101240000D71082000904C713046FFF719FF0822FD
:1012500003213046FFF75CFF69460D714020009086
:101260003046FFF70DFF69463F200C718002174D95
:1012700000902846FFF704FF03220A212846FFF7C3
:1012800047FF03220B212846FFF742FF03220C21D0
:101290002846FFF73DFF03220D212846FFF738FFC0
:1012A00003220E212846FFF733FF03220F21284691
:1012B000FFF72EFF69460C71022000903046FFF7C1
:1012C000DFFE04B070BD000040080140000801408E
:1012D0000E484168890315D50121490441600D4834
:1012E0000B490161816001604161C16041600B494E
:1012F000094808600A48417E012904D0022901D129
:101300000521417070470421FBE700000003014004
:1013100050FB000000070140FF3FFFFF4007014076
:101320007400002010B504460121022000F0BAFB31
:10133000A178208809040843E1782279090512067A
:1013400011430843617949060843A1798906084396
:10135000E17909070843217A49070843217C890775
:10136000084303490860E068C8600020486010BD79
:101370000003014007490180002181700122C270F1
:101380000271C271417181717D220172D200C2600D
:1013900001747047FF030000F0B595B072B656486F
:1013A00056498862C805416902263143416100F00F
:1013B000B3F8F0030168C20011430160302000F06F
:1013C00047FDFFF72DFF6846FFF7D0FD0125684672
:1013D0000570FFF74DFD4A48FFF79EFD6846FFF791
:1013E00021FD68460571052000240090029468469E
:1013F000057308A8049405750E9610A80F9613940B
:101400004470047004724472149468461194057513
:1014100008A845720327069707970B940470447039
:101420000994057268460C94FFF768FC00F05AFCBA
:101430006846FFF79FFF6846057184703148039046
:101440006846FFF76FFF00F02FFC684600F0BAFA1D
:101450000195694600200295009400F07DFA002174
:10146000084600F097FA6846FFF76EF86846048170
:10147000448107820F218181048484800821C181F5
:1014800045800425058069461F48FEF7F1FFDB21F2
:101490001E4809010160FF21C1624169C714394337
:1014A000416100F0EFF9642000F0E4FC184C80206A
:1014B00020600021072000F077FC28022060032133
:1014C0000A2000F071FCE80120600121092000F0F1
:1014D0006BFC25600021022000F066FC27600221E1
:1014E0000B2000F061FC26600221012000F05CFC72
:1014F00062B615B0F0BD0000837A000080000040A5
:10150000CC2C0000FF7F000000040140400401409B
:1015100000E100E0704700000F20024980024860AF
:1015200070470000000C014009484169890604D554
:10153000F0214161074A032151704168890406D5B1
:1015400010B5012149034160FFF712F810BD704743
:10155000800701407400002070470000F8B50C4679
:1015600005460121102000F09DFA2A46AE4880323F
:1015700010636179207989000843A17AE37A09012F
:101580005B0119430843217B09020843617B49023F
:101590000843E8672088286360886863E08B2862D6
:1015A000208C6862608CA862A08CE8622089286721
:1015B00021462031C87A8B7A4000034320464030D0
:1015C0008678E78AB601FF013E4333430E7B36023D
:1015D00033434E7B76023343C678B6033343268BC0
:1015E000F60333438E7C76013343CE7C360133439E
:1015F0000E7D760333434E7D360333438E7EF600F5
:101600003343CE7EB60033430E7FF60233434E7F24
:10161000B60233431362CE7B8B7B7600334306796D
:10162000678BB601FF013E4333430E7C36023343E2
:101630004E7C760233434679B6033343A68BF603DA
:1016400033438E7D76013343CE7D360133438E7F27
:10165000C97FF600334389000B430178C9020B436D
:10166000417889020B435362817C037C89000B43E0
:10167000817BC67B0901760131430B43417C4900E4
:101680000B43C17CC9000B43017DC9010B43017FA2
:1016900009020B43C17E49020B43817F89020B4340
:1016A000417FC9020B43214660310E783603334334
:1016B000C67F760333439362467EC37DB6003343D1
:1016C000467D877D36017F013E433343067E7600AB
:1016D0003343867EF6003343067DF60133438E782E
:1016E000360233434E7876023343D362067A8379E7
:1016F00036013343467A077B7601BF013E433343CD
:10170000C67936023343867A36033343C67A407B42
:1017100076033343800303436B67E08C2865208D99
:10172000686523468033D888A867E089A864208A42
:10173000E8641220205EA8631420205EE8630E791E
:10174000C878760030434E798F79B600FF003E436B
:101750003043CE79360130430E7A760130434E7AEB
:10176000B60130438E7AF6013043CE7A36023043EA
:101770000E7B760230434E7BB60230438E7BF60200
:101780003043CE7B360330430E7C760330434E7CB1
:10179000B60330431060CE7C887C760030430E7DEB
:1017A0004F7D36027F023E4330438E7D3603304309
:1017B000CE7D760330430E7EB6033043906058787A
:1017C0009E78000176013043DE78B60130431E7901
:1017D000F601304310618E7E487E76003043CE7E27
:1017E0000F7FB600FF003E4330434E7F360130434B
:1017F0008E7FC97F76013043890108431978C9017A
:1018000008439061187AD061084828645060D0601D
:101810005061A079E1798001C9010843E96F08436B
:10182000E86703481063F8BDADDE0000FFFF00006D
:10183000FECA000010B58A21FEF7D2FC10BD0000E0
:101840000448034901636721416303490163704709
:10185000ADDE000080070140FECA00000849028892
:101860000A8042888A8082880A81C2888A810289A5
:101870000A8242898A8282890A83C0898883704762
:101880000007014000B5A3B06846FFF7D3FF002072
:101890006A461071012151719171D171D182118308
:1018A0005183918318AA1290D07090744B231B011E
:1018B0006A4613805380254B9384D07218AA117402
:1018C0006A46D084108508AA9076D0760F909174DD
:1018D000D074117550759175D07510AA9070D07034
:1018E0001071D07618AA1790107008AAD072907252
:1018F00020AA0B90107210AA117504236A46137265
:10190000537220AA507010AA90731174907420AA78
:10191000917010AAD1735174D07420AAD07010AAFB
:101920005075D175507620AA107110AA9075117655
:10193000907669460648FFF711FEFFF781FF022106
:101940000448FFF765FC23B000BD0000B4FB0000B5
:10195000000701404008014030B40C4C0A4AA26222
:10196000E5052A69002809D10948024008681043A2
:101970008A6853010343486842021A432A610020DF
:10198000A06230BC70470000837A000080000040F5
:10199000DCFDFFFF10B40A4B084A9A62DA05042402
:1019A000002908D0002802D11069204310610020CE
:1019B000986210BC70471069A043F7E7837A000073
:1019C0008000004003210160002181604160704778
:1019D000074A803002630129816A05D0054A114017
:1019E000816205490163704740221143F8E7000016
:1019F000ADDE0000BFFF0000FECA000001468908FE
:101A00008900FF209130814202D31348814207D9D7
:101A10009320800081421CD34B20C000814218D803
:101A20000120000400680123DB0218435B011860F9
:101A300059200006586018464160C268952000068B
:101A40005860184600685B1198435B0118601046A7
:101A500070470020FCE70000FF010000704770475E
:101A600010B40F4C0D4AA26223151A0501290CD09F
:101A7000410503D511691943116118431169814367
:101A800011610020A06210BC7047410503D51169A7
:101A900099431161984311690143F1E7837A00008A
:101AA00080000040074A064B93620029D16901D0AB
:101AB000014300E08143D161002090627047000043
:101AC000837A00008000004070B50646FF20D530C4
:101AD000FFF794FF000C03280FD3FF209930012457
:101AE000A407051D002E09D0FFF788FF80B26062B1
:101AF0002846FFF783FF80B2A06270BDFFF77EFF2C
:101B0000000C60622846FFF779FF000CF4E770478D
:101B100038B50C4C0A48A0620120FFF7D5FFE0055C
:101B20000169C2131143016164200021009100BFCB
:101B3000491C00918142FAD30348206038BD00005F
:101B4000837A000080000040FF0100007047000021
:101B50000B48016A490812D007210162C16949088E
:101B60004900C1612821C16006480168490849004F
:101B700001601021816001680122114301607047FA
:101B800000060140000A0140044B054A984201D179
:101B9000196270479042FCD1116270470005014004
:101BA000000601400029016803D00122D207114339
:101BB00001E04900490801607047000070B50C461B
:101BC00005462A492A488D4202D10121202003E0FE
:101BD000854203D101214020FFF764FF2079217A5B
:101BE000C00689060843217B09060843218A0905A6
:101BF0000843A18A09040843E16909030843216AEB
:101C0000C9020843616A89020843A16A490208437C
:101C1000E16A09020843616B09010843A16BC9002D
:101C20000843E16B89000843216C49000843616C5B
:101C300008432860A0696860E06CA860A06CE86058
:101C4000206B2861206D6861606DA861A06DE861FE
:101C50000720286220780028286803D00121C907BE
:101C6000084301E040004008286070BD00050140C5
:101C700000060140002141608160C1600161416155
:101C80000122C261816141628162C16201630262BB
:101C90004163C163016441648164C164016541655C
:101CA000826381650170704710B50B4909488862ED
:101CB000C8050169821411430161FF20C930FFF793
:101CC0009DFE064C2080FF20CD30FFF797FE608000
:101CD00010BD0000837A0000800000400E0000204C
:101CE0007047000070B59CB005A8FFF7C3FF2548FA
:101CF00000240B902448099417901494139405A978
:101D00002248FFF75BFF05A8FFF7B4FF204E012133
:101D10003046FFF739FF04213046FFF735FF05A8AD
:101D2000FFF7A8FF01252D200001109506951790BB
:101D300018481A950B90FF200C94023009941494C3
:101D40001B900E950F9405A93046FFF737FF6846A4
:101D5000FFF78EF90120FFF70FF9684605708470D0
:101D6000C4700571457185712021018145700A4853
:101D700003900A48049069460948FFF739F91CB0F6
:101D800070BD00007FBB0000C05D00000005014089
:101D9000000601400000FF3F48080140C400002049
:101DA000000A0140FEE700008307FF22DB0E9A4095
:101DB0008907090E9940002808DB830809489B0021
:101DC0001B18186890430843186070470007000FFD
:101DD0000838830804489B001B18D86990430843BF
:101DE000D861704700E400E000ED00E07047704704
:101DF00010B4002014490822430088780007C00F5F
:101E000018434004030C0879091D0007C00F18434C
:101E1000521EF1D1102101400B4642095100002B06
:101E200000D0012319430B090C465C401B095C40A0
:101E3000230709011B0F194389B2814200D00022F8
:101E40000248028110BC7047C2000020E000002060
:101E500006490A6904239A430A610549C0080860D3
:101E60007D2280B2D20050434860704700E000E01D
:101E700000000020084909684843084948610022D9
:101E80008A61012008610869C30701D0C003FAD53F
:101E90000A618A61704700000000002000E000E055
:101EA00084B0FFF779FA0D48694608804880888039
:101EB000C880088148816846FFF7D0FC01210848A6
:101EC000FFF770FE01210748FFF76CFE012106486D
:101ED000FFF77EFD00F00AF8FCE7000050FBFFFF73
:101EE00000050140000601400007014010B41948F8
:101EF00000230179002904D001290BD0022907D041
:101F0000FEE70021C9434171C38083720121017141
:101F100010BC7047817A0229FAD1C18802220C468E
:101F2000473C132C01D2437104E00C468D3C272C16
:101F300003D24271027110BC7047FF391A394F2920
:101F400004D203214171027110BC7047037110BCAF
:101F500070470000E0000020781F00000000002013
:101F60005C00000004010000D41F00005C000020A1
:101F7000F406000020010000000000000000000046
:101F80000000000000000000000000000000000051
:101F900000000000000000002D0A0000850A00007B
:101FA000350B0000DD0A00008D0B0000E50B000082
:101FB0002D0A0000E50B00008D0B0000DD0A00007B
:101FC000350B0000850A0000F11D0000EF1D000028
:041FD000ED1D000003
:04000005000000C136
:00000001FF
