:020000040000FA
:10000000E806002065010000730100007501000092
:1000100000000000000000000000000000000000E0
:100020000000000000000000000000007701000058
:100030000000000000000000790100000919000024
:100040001319000015190000ED120000251300001F
:10005000D912000045180000570F00005D11000084
:10006000451A0000250C000011040000550F000087
:100070007D1A00004718000000000000000000008A
:100080000000000000000000000000000000000070
:100090000000000000000000000000000000000060
:1000A0000000000000000000000000000000000050
:1000B0000000000000000000000000000000000040
:1000C00000F002F800F03EF80CA030C80838241800
:1000D0002D18A246671EAB4654465D46AC4201D180
:1000E00000F030F87E460F3E0FCCB6460126334274
:1000F00000D0FB1AA246AB4633431847841A0000CF
:10010000A41A0000103A02D378C878C1FAD852076E
:1001100001D330C830C101D504680C6070470000BD
:100120000023002400250026103A01D378C1FBD813
:10013000520700D330C100D50B6070471FB51FBDFB
:1001400010B510BD00F000F91146FFF7F7FF01F000
:10015000F9FC00F018F903B4FFF7F2FF03BC00F05C
:100160001FF90000094880F30888094880470948BA
:100170000047FEE7FEE7FEE7FEE7FEE7FEE70000DA
:1001800005480649064A074B70470000E80600206C
:100190000B190000C1000000E8000020E806002064
:1001A000E8020020E802002001E004C0091F042941
:1001B000FBD28B0701D50280801CC90700D00270DA
:1001C000704700290BD0C30702D00270401C491EA3
:1001D000022904D3830702D50280801C891EE3E72D
:1001E0000022EEE70022DFE7002203098B422CD336
:1001F000030A8B4211D300239C464EE003460B4377
:100200003CD4002243088B4231D303098B421CD3D8
:10021000030A8B4201D394463FE0C3098B4201D3CA
:10022000CB01C01A524183098B4201D38B01C01A02
:10023000524143098B4201D34B01C01A5241030979
:100240008B4201D30B01C01A5241C3088B4201D328
:10025000CB00C01A524183088B4201D38B00C01AD5
:10026000524143088B4201D34B00C01A5241411AFC
:1002700000D201465241104670475DE0CA0F00D0DF
:100280004942031000D34042534000229C460309D8
:100290008B422DD3030A8B4212D3FC22890112BA5E
:1002A000030A8B420CD3890192118B4208D3890136
:1002B00092118B4204D389013AD0921100E089094E
:1002C000C3098B4201D3CB01C01A524183098B422F
:1002D00001D38B01C01A524143098B4201D34B0118
:1002E000C01A524103098B4201D30B01C01A52417B
:1002F000C3088B4201D3CB00C01A524183088B4202
:1003000001D38B00C01A5241D9D243088B4201D38A
:100310004B00C01A5241411A00D201466346524175
:100320005B10104601D34042002B00D54942704774
:1003300063465B1000D3404201B50020C046C04672
:1003400002BD704770477047754600F025F8AE460D
:10035000050069465346C008C000854618B020B560
:10036000FFF70EFF60BC00274908B6460026C0C54F
:10037000C0C5C0C5C0C5C0C5C0C5C0C5C0C5403D5D
:1003800049008D46704710B50446C046C046204619
:10039000FFF7E1FE10BD0000004870478800002014
:1003A00001491820ABBEFEE726000200704700009E
:1003B00000B589B0684600F0A5F8002168460181C3
:1003C0004181032202828181018401218180C181D6
:1003D0004180042101806946074800F02BF8DB21A9
:1003E0000548090140300160FF21C1624169C21422
:1003F0001143416109B000BD00040140C16670476E
:100400000246D26E00200A4200D001207047000050
:1004100010B5074C01212046FFF7F2FF002805D058
:1004200001212046FFF7EAFF00F0B8F810BD0000F8
:1004300000040140F8B50C4605460121080201F010
:1004400003FA6088A866217AE08989020843217945
:10045000A2790903D20211430843A1890901084383
:10046000A17A0902084380B26865618A208A09017D
:100470000843A18AE28A090212031143084328654E
:100480001D48A18B0163618B4163218B81631C48F3
:100490001A4981622088042802D9001F87B200E02F
:1004A0000027208C144EC107402040360506002945
:1004B000296909D001432961FF20AD3001F092F98B
:1004C0007062FF20A93008E081432961FF20A53038
:1004D00001F088F97062FF20A13001F083F93062E9
:1004E0003802A8616869E18B8901084368610448A2
:1004F00000218162F8BD000000040140837A000001
:10050000800000400021018041808180C180018104
:1005100041818181C181018241828182C1820183C5
:1005200041838183C1830184704700000248C16810
:1005300001221143C1607047000201400248016876
:100540000122114301607047000201400A4880689F
:10055000002241060948002901DA428009E0418869
:100560004B1C4380FF23F533994202D9428001217D
:10057000017000787047000040080140140000201E
:1005800010B50548417E012904D14078002801D1E9
:1005900000F042FA10BD00005C000020F8B5514C9C
:1005A000514A2778514862824168E1810068A18AF6
:1005B0000025401A06B22682204641683B00481CAE
:1005C00001F05DFA05041D4E6A728E00484801680C
:1005D000421411430160474801684908490001601D
:1005E000454841681201114341600168120391437B
:1005F00001604248456000F0E5FA01202CE0404BE4
:10060000D318404A934229D26060FF20F5308142DE
:1006100023D9374A3C48106335483C49803841600B
:100620000160C160816041610161314E384B403EE3
:100630003360966A40273E4396621E14166301613A
:10064000816001604B2109014161C160416028481E
:1006500040380360022065602070F8BD6560F8BD19
:10066000264A5368F318536060607F29F7D9D8177A
:10067000400EC018C011A0821D4824498038656012
:100680000161816001604161C16041601849204899
:10069000403908600320DFE7FFF758FF0028DED06D
:1006A000012060760420D7E77D23DB00D21A5B1C93
:1006B0009A4207D36060642905D900F02BF8656081
:1006C000257000E06560FFF741FF002803D100F0CE
:1006D00021F86560257060780028C0D02570F8BDCD
:1006E000FEE700005C000020DC0500000004014083
:1006F0008007014000020140000301401400002077
:1007000017FCFFFFE7030000ADDE000050FB000018
:10071000FF3FFFFF0E480D490163816A4023994363
:1007200081620B490B4A80394A600A60CA608A605C
:100730004A610A61064A0849403A1160816A994350
:1007400081620021C943016370470000ADDE0000F3
:100750008007014050FB0000FF3FFFFF10B5104A2B
:100760000E499162D1054B690724240223434B6152
:100770004B694C15A3434B61002191620949086004
:100780004B200001C86008484861086188604860E3
:10079000044906484031086010BD0000837A00001B
:1007A000800000400007014050FB0000FF3FFFFFBA
:1007B00010B5104A0E499162D1054B6907242402F5
:1007C00023434B614B690C15A3434B61002191629C
:1007D000094908604B200001486108480861C86069
:1007E00088604860044906484031086010BD000038
:1007F000837A0000800000400007014050FB0000A9
:10080000FF3FFFFF10B5104A0E499162D1054B69B9
:100810000724240223434B614B694C15A3434B61CE
:1008200000219162094988604B2000014860084816
:10083000486108610860C8600449064840310860A2
:1008400010BD0000837A00008000004000070140D6
:1008500050FB0000FF3FFFFF10B5104A0E499162A8
:10086000D1054B690724240223434B614B690324C0
:100870002402A3434B6100219162094988604B2007
:10088000000148610748086148600860C860044981
:1008900005484031086010BD837A000080000040A8
:1008A0000007014050FB0000FF3FFFFF10B5104A5A
:1008B0000E499162D1054B690724240223434B6101
:1008C0004B690C15A3434B610021916209490861F2
:1008D0004B200001486008484861C8608860086093
:1008E000044906484031086010BD0000837A0000CA
:1008F000800000400007014050FB0000FF3FFFFF69
:1009000010B5104A0E499162D1054B6907242402A3
:1009100023434B614B6903242402A3434B61002111
:100920009162094908614B200001C860074848618D
:10093000886048600860044905484031086010BD7F
:10094000837A0000800000400007014050FB000057
:10095000FF3FFFFFF8B52C4C0621A07A257A401CFA
:10096000FFF742FCA172203CA08C002D02D0890030
:10097000264A02E0254A8900183251588847244DFA
:10098000E868C007C017401C02D0FFF7CFFD03E0A6
:10099000E86840084000E86068691C4AC005083AF9
:1009A0005178C00F0327814206D0A1684B1CA36079
:1009B0000A2901D9677000E05070164801690023C8
:1009C000E161036124202626205EA65FB04204DA9E
:1009D000227B511C21730A2A07D0B0420BDD217BF8
:1009E0004A1C22730A2903D005E02373401C01E04E
:1009F0002373401EA08428684008400028606F6070
:100A0000FFF79CFDF8BD00007C0000201C000020CA
:100A10000002014000030140F8B55B4E002534465A
:100A2000203C217E377A002909D03046807A800028
:100A3000012912D0022940D0032976D0FEE753487D
:100A4000016853488847A068411CA160FF21F53127
:100A5000884231D90120A5602DE0002F01D04B49FB
:100A600001E04A491831095849488847A068411CA3
:100A7000A160276AB8421FD9A560B07A0621401C40
:100A8000FFF7B2FB781EB1722062142F14D24148D6
:100A90008168C908C9008160404825733E49C1602A
:100AA000056141680122520411434160016812034B
:100AB0001143016002202076F8BD002F01D0334998
:100AC00001E032491831095831488847A068411C73
:100AD000A160216A884206D9A560B07A0621401C2F
:100AE000FFF782FBB17200F05DF80028E4D0207BB4
:100AF000401CC0B220730428DED12848056125734C
:100B0000A560B07A0621401CFFF76EFBB172002F82
:100B100002D089001D4802E01C4889001830415865
:100B20001B4888470320C6E7FFE700F03BF8002892
:100B300015D01A480561207B0621401C2073B07A2D
:100B4000401CFFF751FBB172002F02D089000F4803
:100B500002E00E488900183041580D488847207B34
:100B6000FF28A9D10B4825738168012211438160B8
:100B7000022161760A490A6843149A430A600321F4
:100B80004160FFF7DBFCF8BD7C0000201C0000206A
:100B90007CFC000000020140FFA50E0000030140A4
:100BA00080070140054900204969054AC905537A73
:100BB000C90F8B4201D051720120704700020140E1
:100BC0007C0000200E4810B500210170417041608A
:100BD000816002460173203291720176417664236E
:100BE0000362084B8384C384117201235372C16171
:100BF0004182C18101828182FFF798FC10BD000013
:100C00005C0000207CFCFFFF10B50548417E0229F6
:100C100004D14078002801D1FFF79CFE10BD0000F0
:100C20005C00002010B505484168C90705D041683F
:100C3000012211434160FFF7E7FF10BD00020140B0
:100C4000F8B50446444943488862CA055069434B95
:100C50001840A36B1B031843237BDB021843A369D3
:100C60001B0218432369DB011843E36B1B01184384
:100C7000E3699B001843506100278F6225462035A9
:100C8000297D101400F0E0FD0120217D400300F0DB
:100C9000DBFD26464036707A002802D1687A0028AB
:100CA00001D0012100E00021082000F0EFFD3178A3
:100CB0002878490208436978727809025200114382
:100CC0000843274908602079002837D0226812019C
:100CD000C0000243A06802438A60606C327AC0019F
:100CE00092011043727A52011043E26C12011043D8
:100CF000626AD20010432A7A920010436A7A520044
:100D00001043E26A1043C860307C727CC0019201DB
:100D10001043B27C52011043F27C120110432A7C32
:100D2000D20010436A7C92001043AA7C5200104308
:100D3000EA7C1043086103204860F8BD707A0028FF
:100D400002D1687A002802D008208860C5E78F6049
:100D5000C3E70000837A0000800000404380000069
:100D600000020140002101220160027181600273D2
:100D70000246203201611346117520325170117004
:100D8000416411725172C1648163C1631174517401
:100D90009174D17401751970597041621972597248
:100DA000C1628161C161197459749974D9747047B1
:100DB00000B595B06846FFF7D5FF01216A4611716D
:100DC0000520009000200290117308AA049011756C
:100DD00002220E920F92139010AA5070107010728F
:100DE000507214906A461190117508AA517203222C
:100DF000069207920B9008AA107050700990117219
:100E00000C906846FFF71CFF15B000BD10B5094CEB
:100E10000748A062012000F04BFDE0050169C21304
:100E200011430161642000F066FD0348206010BD9D
:100E3000837A000080000040FF010000F8B50546FD
:100E40000121C80200F000FD0126B60770680221EA
:100E5000C3B2FF20C1301C4C071D6B70012B2BD07F
:100E60000322022BAB7801D0022B0ED0002B23D013
:100E7000012B09D1227000F0B5FC001460803846C7
:100E800000F0B0FC0014A080F8BD0120FF25207008
:100E90008D35284600F0A6FC00146080284600F03E
:100EA000A1FCA0800A4809498162B169C2131143BB
:100EB000B16108498162F8BD217000F093FC608047
:100EC000384600F08FFCDEE708000020837A00003F
:100ED00080000040FFFF0000124B00211A78012A19
:100EE00004D0022A04D0032A04D004E0D52102E071
:100EF000552100E035214843000BFF2800DBFF208F
:100F00000221595E414348129988401800B20028D6
:100F100001DA002002E0FF2800DDFF20012189071F
:100F2000C86270470800002010B50321FFF758F988
:100F300010BD000008B56846FFF7F6FF01206946BE
:100F400008706846FFF77AFF0148FFF7C5FF08BD44
:100F5000CC2C00007047704770B5002301252A464D
:100F60000C689A401440944237D10C79002C06D07A
:100F7000012C09D0022C0ED0032C12D018E00468EA
:100F800016462643066009E00468944304604668F8
:100F9000144634430BE0046894430460446894436B
:100FA00005E0066814463443046044681443446012
:100FB0004C79012C02D0002C04D006E006691446BE
:100FC000344301E004699443046184698E68012E0E
:100FD00007D016462246B24382615B1C102BBED35B
:100FE00070BD2243F8E70000F0B5324F160115023C
:100FF00014030B0000F043FD10090D13181E2228E6
:101000002D33373D42484C52571D016A39408918EB
:101010000EE0016A274AE13A1140711808E0016ABE
:10102000254A1140691803E0016A0905090D611894
:101030000162F0BD416A394089180EE0416A1D4ADB
:10104000E13A1140711808E0416A1B4A11406918E1
:1010500003E0416A0905090D61184162F0BD816A2A
:10106000394089180EE0816A124AE13A114071183C
:1010700008E0816A104A1140691803E0816A090595
:10108000090D61188162F0BDC16A394089180EE00E
:10109000C16A084AE13A1140711808E0C16A064A7B
:1010A0001140691803E0C16A0905090D6118C162A0
:1010B000F0BD0000F0FF0000FFF00000016370478A
:1010C000002101600171417181607047FEB5684681
:1010D000FFF7F6FF012469460C7120201E4D009099
:1010E0002846FFF739FF002069460871402000902C
:1010F0002846FFF731FF69463F20174E0C718002EA
:10110000403E00903046FFF727FF03220A21304679
:10111000FFF76AFF03220B213046FFF765FF03222A
:101120000C213046FFF760FF03220D213046FFF708
:101130005BFF03220E213046FFF756FF03220F21EB
:101140003046FFF751FF69460C7102200090284697
:10115000FFF702FFFEBD0000400801400C48416857
:10116000890313D5416801225204114341600A48A2
:1011700008490161816001604161C16041600649C7
:101180000648403108600649022048707047000058
:101190000003014050FB000000070140FF3FFFFF3C
:1011A0005C00002010B504460121022000F06EFB17
:1011B000A178208809040843E178227909051206FC
:1011C00011430843617949060843A1798906084318
:1011D000E17909070843217A49070843217C8907F7
:1011E000084303490860E068C8600020486010BDFB
:1011F0000003014007490180002181700122C27073
:101200000271C271417181717D220172D200C2608E
:1012100001747047FF03000000B585B06846FFF712
:10122000E9FF0121684601710021817003480390A4
:101230006846FFF7B7FF05B000BD0000FF7F000064
:1012400010B572B6224823498862C8054169022256
:101250001143416100F042F8012000040168C2001E
:1012600011430160302000F045FCFFF72FFFFFF72E
:1012700061FEFFF79DFD00F0E7FBFFF7CDFF00F0FB
:10128000C5FB00F087FAFFF793F800F0E1F964205E
:1012900000F042FC072000F0FFFB0021072000F0D7
:1012A00007FC0A2000F0F8FB02210A2000F000FCF5
:1012B000092000F0F1FB0121092000F0F9FB0220D8
:1012C00000F0EAFB0021022000F0F2FB62B610BD44
:1012D000837A000080000040704700000F20024920
:1012E0008002486070470000000C014010B50B4CB4
:1012F0006069800607D5F0206061094901204870C7
:101300000003FFF7E9FD6068800406D560680121ED
:10131000490308436060FFF733F910BD80070140BF
:101320005C00002070470000F8B50C46054601211E
:10133000102000F0ABFA2A46AE4880321063617983
:10134000207989000843A17AE37A09015B011943F6
:101350000843217B09020843617B49020843E8678F
:101360002088286360886863E08B2862208C68622C
:10137000608CA862A08CE862208928672146203111
:10138000C87A8B7A40000343204640308678E78A4B
:10139000B601FF013E4333430E7B360233434E7B9F
:1013A00076023343C678B6033343268BF6033343C2
:1013B0008E7C76013343CE7C360133430E7D76033B
:1013C00033434E7D360333438E7EF6003343CE7E69
:1013D000B60033430E7FF60233434E7FB6023343EB
:1013E0001362CE7B8B7B760033430679678BB60125
:1013F000FF013E4333430E7C360233434E7C76027C
:1014000033434679B6033343A68BF60333438E7DCD
:1014100076013343CE7D360133438E7FC97FF6009C
:10142000334389000B430178C9020B434178890299
:101430000B435362817C037C89000B43817BC67B19
:101440000901760131430B43417C49000B43C17CC8
:10145000C9000B43017DC9010B43017F09020B4306
:10146000C17E49020B43817F89020B43417FC90240
:101470000B43214660310E7836033343C67F760333
:1014800033439362467EC37DB6003343467D877DFA
:1014900036017F013E433343067E76003343867E2A
:1014A000F6003343067DF60133438E78360233432C
:1014B0004E7876023343D362067A8379360133431A
:1014C000467A077B7601BF013E433343C679360235
:1014D0003343867A36033343C67A407B76033343FD
:1014E000800303436B67E08C2865208D6865234685
:1014F0008033D888A867E089A864208AE86412202D
:10150000205EA8631420205EE8630E79C878760018
:1015100030434E798F79B600FF003E433043CE7999
:10152000360130430E7A760130434E7AB6013043AD
:101530008E7AF6013043CE7A360230430E7B760245
:1015400030434E7BB60230438E7BF6023043CE7B77
:10155000360330430E7C760330434E7CB603304373
:101560001060CE7C887C760030430E7D4F7D360245
:101570007F023E4330438E7D36033043CE7D76037B
:1015800030430E7EB6033043906058789E78000159
:1015900076013043DE78B60130431E79F6013043E0
:1015A00010618E7E487E76003043CE7E0F7FB6007F
:1015B000FF003E4330434E7F360130438E7FC97F6C
:1015C00076013043890108431978C90108439061C5
:1015D000187AD061084828645060D0605061A079C2
:1015E000E1798001C9010843E96F0843E8670348CE
:1015F0001063F8BDADDE0000FFFF0000FECA000072
:1016000010B58A21FEF7ECFD10BD00000448034927
:10161000016367214163034901637047ADDE000048
:1016200080070140FECA0000084902880A804288FB
:101630008A8082880A81C2888A8102890A824289D4
:101640008A8282890A83C0898883704700070140A3
:1016500000B5A3B06846FFF7D3FF00206A461071BB
:10166000012151719171D171D18211835183918383
:1016700018AA1290D07090744B231B016A461380F5
:101680005380244B938418AA11746A46D084108521
:1016900008AA9076D0760F909174D0741175507519
:1016A0009175D07510AA9070D0701071D07618AA6C
:1016B0001790107008AAD072907220AA0B90107226
:1016C00010AA117504236A461372537220AA50702F
:1016D00010AA90731174907420AA917010AAD173FB
:1016E0005174D07420AAD07010AA5075D17550765C
:1016F00020AA107110AA9075117690766946064856
:10170000FFF712FEFFF782FF02210448FFF7D6FC25
:1017100023B000BDB4FB00000007014040080140B9
:1017200030B50B4C094AA262E5052A69002809D1A7
:1017300008480240086810438A6853010343486818
:1017400042021A432A610020A06230BD837A000061
:1017500080000040DCFDFFFF10B50A4B084A9A628A
:10176000DA050424002907D0002802D1106920439B
:1017700010610020986210BD1069A043F8E70000D6
:10178000837A000080000040032101600021816015
:10179000416070470EB56846FFF7F6FF0120002153
:1017A00001900091029069460020FFF7B9FF0021E7
:1017B0000846FFF7D1FF0EBD074A803002630129BA
:1017C000816A05D0054A114081620549016370476D
:1017D00040221143F8E70000ADDE0000BFFF00002B
:1017E000FECA0000014689088900FF20913081422D
:1017F00002D31348814207D99320800081421CD331
:101800004B20C000814218D8012000040068012349
:10181000DB0218435B011860592000065860184627
:101820004160C268952000065860184600685B1148
:1018300098435B011860104670470020FCE70000E9
:10184000FF0100007047704710B50F4C0D4AA262AF
:1018500023151A0501290BD0410503D51169194338
:10186000116118431169814311610020A06210BD0C
:10187000410503D5116999431161984311690143E9
:10188000F2E70000837A000080000040074A064B20
:1018900093620029D16901D0014300E08143D16105
:1018A0000020906270470000837A000080000040B2
:1018B00070B50646FF20D530FFF794FF000C0328D3
:1018C0000FD3FF2099300124A407051D002E09D055
:1018D000FFF788FF80B260622846FFF783FF80B27F
:1018E000A06270BDFFF77EFF000C60622846FFF724
:1018F00079FF000CF4E708B500210091814202D283
:1019000000BF491CF9E708BD704710B5FFF77EFA24
:1019100010BD704770470029016803D00122D2072B
:10192000114301E0490049080160704770B50C4659
:101930000546274927488D4202D10121202003E096
:10194000854203D101214020FFF7A0FF2079217AB1
:10195000C00689060843217B09060843218A090538
:101960000843A18A09040843E16909030843216A7D
:10197000C9020843616A89020843A16A490208430F
:10198000E16A09020843616B09010843A16BC900C0
:101990000843E16B89000843216C49000843616CEE
:1019A00008432860A0696860E06CA860A06CE860EB
:1019B000206B2861206D6861606DA861A06DE86191
:1019C0000720286221782846FFF7A5FF70BD000098
:1019D0000005014000060140002141608160C160B6
:1019E000016141610122C261816141628162C16222
:1019F000016302624163C163016441648164C16443
:101A000001654165826381650170704710B50B49BE
:101A100009488862C8050169821411430161FF20E9
:101A2000C930FFF7DFFE064C2080FF20CD30FFF7E6
:101A3000D9FE608010BD0000837A00008000004065
:101A40000E0000207047000000B597B06846FFF711
:101A5000C3FF002004900F900E90054806900548A3
:101A6000129069460448FFF761FF17B000BD0000FF
:101A70007FBB0000C05D000000050140FEE730B400
:101A80007446641E2578641CAB4200D21D46635D1B
:101A90005B00E31830BC1847002805DBC106C90EFF
:101AA00001208840014908607047000000E100E023
:101AB0008307FF22DB0E9A408907090E9940002810
:101AC00008DB830809489B001B18186890430843EB
:101AD000186070470007000F0838830804489B000F
:101AE0001B18D86990430843D861704700E400E0B0
:101AF00000ED00E006490A6904239A430A6105499A
:101B0000C00808607D2280B2D20050434860704710
:101B100000E000E000000020084909684843084947
:101B200048610020886101220A610A69D30701D057
:101B3000D203FAD5086188617047000000000020D8
:101B400000E000E0FFF77CFB0A4809490180418082
:101B50008180C18001814181FFF766FD0121064836
:101B6000FFF7D9FE01210548FFF726FEFEE700003A
:101B700050FBFFFF4C000020000501400007014022
:101B8000A01B0000000000204C0000000401000029
:101B9000EC1B00004C0000209C060000200100000F
:101BA0000000000000000000000000000000000035
:101BB0000000000000000000000000005D070000C1
:101BC000B10700005908000005080000AD0800003A
:101BD000010900005D07000001090000AD080000D8
:0C1BE0000508000059080000B1070000D3
:04000005000000C136
:00000001FF
